S01900004D616368696E65436F6E74726F6C6C65722E7372656332
S11300000C942A000C943C000C943C000C943C008E
S11300100C943C000C943C000C943C000C943C006C
S11300200C943C000C944F000C943C000C949304EE
S11300300C943C000C948E000C943C000C943C00FA
S11300400C943C000C943C000C943C000C943C003C
S11300500C943C0011241FBECFE5D4E0DEBFCDBF1D
S113006020E0A0E6B0E001C01D92AF3EB207E1F788
S11300700E94E1040C941F080C94000080E781BBEB
S11300808CE384BB1BB888ED8AB986E080BD10BCC4
S113009083E089B981E083BF89BF789408951F9272
S11300A00F920FB60F9211242F933F934F935F93A8
S11300B06F937F938F939F93AF932091B000309170
S11300C0B1004091B2005091B3006091B4007091BE
S11300D0B5008091B6009091B700A3E20E94F207A8
S11300E02093B0003093B1004093B2005093B3001A
S11300F06093B4007093B5008093B6009093B700FA
S1130100AF919F918F917F916F915F914F913F91AB
S11301102F910F900FBE0F901F9018951F920F9262
S11301200FB60F9211240F900FBE0F901F901895C9
S1130130AF92BF92CF92DF92EF92FF920F931F93F1
S11301404091C2005091C3004F5F5F4F952F990FAC
S1130150990BA090A000B090A100C090A200D090F4
S1130160A300E090A400F090A5000091A6001091D7
S1130170A700242F352F492F592F692F792F892F25
S11301800E941807209388003093890040938A00C6
S113019050938B0060938C0070938D0080938E003D
S11301A090938F002C503E4F4F4F5F4F6F4F7F4FB8
S11301B08F4F9F4F209370003093710040937200D3
S11301C0509373006093740070937500809376006D
S11301D0909377001F910F91FF90EF90DF90CF9055
S11301E0BF90AF900895AF92BF92CF92DF92EF92FB
S11301F0FF920F931F934091C0005091C1004F5F35
S11302005F4F952F990F990BA0909800B09099008B
S1130210C0909A00D0909B00E0909C00F0909D00CC
S113022000919E0010919F00242F352F492F592FA4
S1130230692F792F892F0E9418072093800030930B
S113024081004093820050938300609384007093F4
S1130250850080938600909387002C503E4F4F4F2B
S11302605F4F6F4F7F4F8F4F9F4F209368003093A6
S1130270690040936A0050936B0060936C00709324
S11302806D0080936E0090936F001F910F91FF900B
S1130290EF90DF90CF90BF90AF900895AF92BF9250
S11302A0CF92DF92EF92FF920F931F934091BE0083
S11302B05091BF004F5F5F4F952F990F990BA090FE
S11302C09000B0909100C0909200D0909300E09084
S11302D09400F09095000091960010919700242FBF
S11302E0352F492F592F692F792F892F0E941807ED
S11302F0209378003093790040937A0050937B00E8
S113030060937C0070937D0080937E0090937F00C7
S11303102C503E4F4F4F5F4F6F4F7F4F8F4F9F4F2C
S11303202093600030936100409362005093630017
S113033060936400709365008093660090936700F7
S11303401F910F91FF90EF90DF90CF90BF90AF90EF
S11303500895882311F0949A01C094988093D8004A
S11303600895882311F0AD9A01C0AD988093D70009
S11303700895882311F0AB9A01C0AB988093D600FE
S11303800895882311F0959A01C095988093DB0015
S11303900895882311F0AC9A01C0AC988093DA00D8
S11303A00895882311F0AA9A01C0AA988093D900CD
S11303B008952F923F924F925F926F927F928F9205
S11303C09F92AF92BF92CF92DF92EF92FF920F93E0
S11303D01F93CF93DF93CDB7DEB767970FB6F8942B
S11303E0DEBF0FBECDBF8091E0008E3109F074C234
S11303F0212C312C2E0181E1480E511C91E029164B
S11304003104D9F12CF42114310409F445C008C095
S1130410B2E02B16310411F183E028163104A1F067
S113042091E02916310461F12CF42114310409F00E
S113043085C035C0B2E02B16310499F083E028164C
S1130440310409F07BC003C0A7E0B0E002C0A0E023
S1130450B0E0A052BF4FFE0139962DC085E090E078
S113046002C080E090E0FC01E052FF4F9081818166
S11304709093C4008093C50061C083E090E002C003
S113048080E090E0FC01E052FF4F908181819093E5
S1130490C6008093C70052C081E090E002C080E0B3
S11304A090E0FC01E052FF4F908181819093C8005D
S11304B08093C90043C08D918193E415F505D9F764
S11304C088886F847E84ED85FC85AB85BA859984A4
S11304D0292D3B2F4A2F5F2F6E2F772D862D982D98
S11304E002E00E94D007A22EB32EC42ED52EE62EF3
S11304F0F72E898B192F05E00E94D00709890E94E5
S1130500FE07A92CBB2ECA2EDF2EEE2EF72C062DAD
S1130510182D0E94E90703E00E94D0072093A80049
S11305203093A9004093AA005093AB006093AC00B1
S11305307093AD008093AE009093AF009FEF291AA3
S1130540390AA4E02A16310409F058CF8091CE006C
S11305509091CF009093D5008093D4002091CC004B
S11305603091CD003093D3002093D2002091CA0063
S11305703091CB003093D1002093D0002091C8005B
S11305803091C9002817390794F081E00E94C10115
S11305908091C8009091C9002091D4003091D50079
S11305A0821B930B9093BD008093BC0011C080E02C
S11305B00E94C1018091D4009091D5002091C8007F
S11305C03091C900821B930B9093BD008093BC00B3
S11305D02091C6003091C7008091D2009091D30041
S11305E02817390794F081E00E94C9018091C60060
S11305F09091C7002091D2003091D300821B930BBD
S11306009093BB008093BA0011C080E00E94C9019E
S11306108091D2009091D3002091C6003091C70000
S1130620821B930B9093BB008093BA002091C4006B
S11306303091C5008091D0009091D10028173907DE
S113064094F081E00E94D1018091C4009091C50092
S11306502091D0003091D100821B930B9093B9006C
S11306608093B80011C080E00E94D1018091D00035
S11306709091D1002091C4003091C500821B930B4E
S11306809093B9008093B800E091BC00F091BD0054
S11306901E161F0634F4CF010F2E000CAA0BBB0B41
S11306A003C080E090E0DC018090BA009090BB0031
S11306B02090B8003090B9006101032C000CEE08C2
S11306C0FF08A401092C000C660B770B4C155D0583
S11306D06E057F0514F4B701A601481759076A0788
S11306E07B0714F4AC01BD011092C3001092C20048
S11306F01092C1001092C0001092BF001092BE0070
S113070014161506160617060CF0E3C09A01AB0181
S11307102F5F3F4F4F4F5F4FA8EEB3E00E940D078E
S11307202B013C01DC01CB01BB0F880B982FDC01B2
S1130730898B9A8BAB8BBC8BA090A800B090A9003E
S1130740C090AA00D090AB00E090AC00F090AD0057
S11307500091AE001091AF00242D352D462D572D5C
S11307606989762F862F962F0E94070889F080F0DA
S11307704092A8005092A9006092AA007092AB0027
S11307806093AC006093AD006093AE006093AF00E3
S11307904090A8005090A9006090AA007090AB000F
S11307A09091AC00998BA091AD00AD8BB091AE004F
S11307B0BE8B8091AF008F8B31961F2F110F110BC1
S11307C0AE2EBF2EC12ED12EE12EF12E012F242DBF
S11307D0352D462D572D692F7A2F8B2F9F890E94F7
S11307E073072093A0003093A1004093A20050937C
S11307F0A3006093A4007093A5008093A600909337
S1130800A7009FEF891A990A192D110F110BA82C13
S1130810B92CC12ED12EE12EF12E012F242D352DF0
S1130820462D572D69897D898E899F890E9473077A
S1130830209398003093990040939A0050939B0022
S113084060939C0070939D0080939E0090939F0002
S1130850AFEF2A1A3A0A132D110F110BA22CB32C45
S1130860C12ED12EE12EF12E012F242D352D462D12
S1130870572D69897D898E899F890E9473072093EA
S113088090003093910040939200509393006093B2
S113089094007093950080939600909397000E9423
S11308A098000E94F3000E944E011092B000109232
S11308B0B1001092B2001092B3001092B4001092E2
S11308C0B5001092B6001092B70081E08093DD006D
S11308D011C084E18CB90EC01092CF001092CE00EA
S11308E01092CD001092CC001092CB001092CA004E
S11308F084E18CB967960FB6F894DEBF0FBECDBF06
S1130900DF91CF911F910F91FF90EF90DF90CF90E7
S1130910BF90AF909F908F907F906F905F904F901B
S11309203F902F9008951F920F920FB60F921124AB
S11309302F933F934F935F936F937F938F939F93E3
S1130940AF93BF93EF93FF932CB18091DE0090910E
S1130950DF00FC01E052FF4F208301969093DF00FB
S11309608093DE00019741F4222394F41092DF0077
S11309701092DE000E94D9018091DE009091DF0088
S11309800F9731F41092DF001092DE000E94D9011B
S1130990FF91EF91BF91AF919F918F917F916F9153
S11309A05F914F913F912F910F900FBE0F901F9029
S11309B01895882311F0969A01C096988093DC00CC
S11309C008950E943E000F2EF4E19F2EF02D809199
S11309D0DD00882309F416C22091B0003091B100E3
S11309E04091B2005091B3006091B4007091B50091
S11309F0A090A800B090A900C090AA00D090AB002D
S1130A00E090AC00F090AD000091AE001091AF000A
S1130A108091B6009091B7000E94070808F0EBC1DE
S1130A2081E00E94D9042091C2003091C3008091DA
S1130A30BC009091BD00281739070CF096C0809136
S1130A40D800811149C07090B0008090B100D0915D
S1130A50B200C091B300B091B400A091B500F09180
S1130A60B600E091B700A0908800B0908900C090D3
S1130A708A00D0908B00E0908C00F0908D00009163
S1130A808E0010918F00272D382D4D2F5C2F6B2F4A
S1130A907A2F8F2F9E2F0E94070808F466C0A0901B
S1130AA07000B0907100C0907200D0907300E0901C
S1130AB07400F090750000917600109177000E9408
S1130AC0070811F008F051C081E00E94A90180914B
S1130AD0D800882309F449C02091B0003091B100B6
S1130AE04091B2005091B3006091B4007091B50090
S1130AF0A0907000B0907100C0907200D09073000C
S1130B00E0907400F09075000091760010917700E9
S1130B108091B6009091B7000E94070831F128F146
S1130B2080E00E94A9018091C2009091C3000196C7
S1130B309093C3008093C2008091DB00882351F01E
S1130B408091CE009091CF0001969093CF00809336
S1130B50CE0009C08091CE009091CF000197909370
S1130B60CF008093CE000E9498002091C000309165
S1130B70C1008091BA009091BB00281739070CF08E
S1130B8096C08091D700811149C07090B0008090C8
S1130B90B100D091B200C091B300B091B400A09163
S1130BA0B500F091B600E091B700A0908000B0903D
S1130BB08100C0908200D0908300E0908400F09087
S1130BC085000091860010918700272D382D4D2F28
S1130BD05C2F6B2F7A2F8F2F9E2F0E94070808F40B
S1130BE066C0A0906800B0906900C0906A00D09080
S1130BF06B00E0906C00F0906D0000916E0010911D
S1130C006F000E94070811F008F051C081E00E94B3
S1130C10B1018091D700882309F449C02091B00024
S1130C203091B1004091B2005091B3006091B40092
S1130C307091B500A0906800B0906900C0906A00FF
S1130C40D0906B00E0906C00F0906D0000916E000D
S1130C5010916F008091B6009091B7000E94070830
S1130C6031F128F180E00E94B1018091C00090919F
S1130C70C10001969093C1008093C0008091DA0076
S1130C80882351F08091CC009091CD0001969093EF
S1130C90CD008093CC0009C08091CC009091CD0010
S1130CA001979093CD008093CC000E94F300209193
S1130CB0BE003091BF008091B8009091B900281710
S1130CC039070CF084CE8091D600811149C0709010
S1130CD0B0008090B100D091B200C091B300B09147
S1130CE0B400A091B500F091B600E091B700A090D7
S1130CF07800B0907900C0907A00D0907B00E090AA
S1130D007C00F0907D0000917E0010917F00272DE3
S1130D10382D4D2F5C2F6B2F7A2F8F2F9E2F0E94F3
S1130D20070808F454CEA0906000B0906100C09011
S1130D306200D0906300E0906400F0906500009140
S1130D406600109167000E94070811F008F03FCE7A
S1130D5081E00E94B9018091D600882309F437CE3E
S1130D602091B0003091B1004091B2005091B30095
S1130D706091B4007091B500A0906000B0906100E3
S1130D80C0906200D0906300E0906400F090650031
S1130D9000916600109167008091B6009091B700B1
S1130DA00E94070809F008F412CE80E00E94B901FD
S1130DB08091BE009091BF0001969093BF008093F4
S1130DC0BE008091D900882351F08091CA0090918F
S1130DD0CB0001969093CB008093CA0009C0809108
S1130DE0CA009091CB0001979093CB008093CA00E6
S1130DF00E944E01ECCD80E00E94D9041092DD00E7
S1130E009CB8E5CD81E00E94D904C4E1D0E080E043
S1130E100E94D9042197D9F7DACD0E941008A59F22
S1130E20900DB49F900DA49F800D911D11240895E1
S1130E30DF93CF931F930F939A9DF02D219FF00D75
S1130E408B9DF00D8A9DE02DF10D039FF00D029F07
S1130E50E00DF11D4E9DE00DF11D5E9DF00D4F9DC9
S1130E60F00D7F936F93BF92AF925F934F93D50131
S1130E700E9410088B01AC01D7010E941008EB01FD
S1130E80E80FF91FD6010E9468072F913F91D60100
S1130E900E941008C60FD71FE81FF91FAF91BF911A
S1130EA00E9468072F913F910E941008C60FD71F18
S1130EB0E81FF91FD6010E941008E60FF71F9801DA
S1130EC0BE01CF0111240F911F91CF91DF9108959D
S1130ED00E941008460F571FC81FD91F08F43196E7
S1130EE00895689401C0E8948F929F92CF93DF9302
S1130EF00E947F07DF91CF919F908F90089588245F
S1130F009924F401E401B0E49F93AA279A158B0471
S1130F109C04ED05FE05CF05D007A10798F4AD2F7D
S1130F20DC2FCF2FFE2FE92D982C892E982F872F79
S1130F30762F652F542F432F322F2227B85031F7A5
S1130F40BF9127C01B2EBF91BB27220F331F441F05
S1130F50551F661F771F881F991F881C991CEE1F39
S1130F60FF1FCC1FDD1FAA1FBB1F8A149B04EC05A7
S1130F70FD05CE05DF05A007B10748F08A189B08D8
S1130F80EC09FD09CE09DF09A00BB10B21601A940D
S1130F90E1F62EF49401AF01BE01CD01000C0895D9
S1130FA00F93083090F0982F872F762F652F542FAA
S1130FB0432F322F22270850F4CF220F331F441F10
S1130FC0551F661F771F881F991F0A95B2F70F9147
S1130FD008952A0D3B1D4C1D5D1D6E1D7F1D801F38
S1130FE0911F08950024A7FD00942A0F301D401D71
S1130FF0501D601D701D801D901D08952A193B0908
S11310004C095D096E097F09800B910B08952A151F
S11310103B054C055D056E057F0580079107089526
S1131020A29FB001B39FC001A39F700D811D112425
S1131030911DB29F700D811D1124911D0895F89486
S1051040FFCFDC
S9030000FC
